{
  "preimage_components": {
    "version": "02000000",
    "hash_prevouts": "ca5ace6dec772a290777987fd77016fcfd32925a42c84389b7b5fbd1c02654e1",
    "hash_sequence": "3bb13029ce7b1f559ef5e747fcac439f1455a2ec7c5f09b72290795e70665044",
    "outpoint": {
      "hash": "0000000000000000000000000000000000000000000000000000000000000000",
      "index": 0
    },
    "script_code": "475221032ff8c5df0bc00fe1ac2319c3b8070d6d1e04cfbf4fedda499ae7b775185ad53b21039bbc8d24f89e5bc44c5b0d1980d6658316a6b2440023117c3c03a4975b04dd5652ae",
    "amount": 100000,
    "sequence": 4294967295,
    "hash_outputs": "a3826eabfef600911c29ae1945bb9e53bb887f4905526e79207f2483f588be0b",
    "locktime": 0,
    "sighash_type": 1
  },
  "preimage_hex": "02000000ca5ace6dec772a290777987fd77016fcfd32925a42c84389b7b5fbd1c02654e13bb13029ce7b1f559ef5e747fcac439f1455a2ec7c5f09b72290795e70665044000000000000000000000000000000000000000000000000000000000000000000000000475221032ff8c5df0bc00fe1ac2319c3b8070d6d1e04cfbf4fedda499ae7b775185ad53b21039bbc8d24f89e5bc44c5b0d1980d6658316a6b2440023117c3c03a4975b04dd5652aea086010000000000ffffffffa3826eabfef600911c29ae1945bb9e53bb887f4905526e79207f2483f588be0b0000000001000000",
  "sighash": "49275f3027c347196d9cd74ebe10d95ced1594eb3d235dcb031e565aca9258d6"
}